:020000040800F2
:1000000000500020951B0008311A0008331A000820
:10001000351A0008371A0008391A000800000000D5
:100020000000000000000000000000003B1A000873
:100030003D1A0008000000003F1A0008411A00089D
:10004000DD1B0008DD1B0008DD1B0008DD1B0008B0
:10005000DD1B0008DD1B0008DD1B0008DD1B0008A0
:10006000DD1B0008DD1B0008DD1B0008DD1B000890
:10007000DD1B0008DD1B0008DD1B0008DD1B000880
:10008000DD1B0008DD1B0008DD1B0008DD1B000870
:10009000DD1B0008DD1B0008DD1B0008DD1B000860
:1000A000DD1B0008DD1B0008DD1B0008DD1B000850
:1000B000DD1B0008DD1B0008DD1B0008DD1B000840
:1000C000DD1B0008DD1B0008DD1B0008DD1B000830
:1000D000DD1B0008DD1B0008DD1B0008DD1B000820
:1000E000DD1B0008DD1B0008DD1B00080000000010
:1000F0000000000000000000000000000000000000
:0C01000000000000000000005FF808F1A3
:1001100010B5054C237833B9044B13B10448AFF341
:1001200000800123237010BD500A00200000000051
:100130008887000808B5034B1BB103490348AFF398
:10014000008008BD00000000540A002088870008D5
:1001500081F0004102E000BF83F0004330B54FEA78
:1001600041044FEA430594EA050F08BF90EA020FE5
:100170001FBF54EA000C55EA020C7FEA645C7FEA78
:10018000655C00F0E2804FEA5454D4EB5555B8BF9B
:100190006D420CDD2C4480EA020281EA030382EA0C
:1001A000000083EA010180EA020281EA0303362D9E
:1001B00088BF30BD11F0004F4FEA01314FF4801C71
:1001C0004CEA113102D0404261EB410113F0004F83
:1001D0004FEA03334CEA133302D0524263EB43033A
:1001E00094EA050F00F0A780A4F10104D5F1200ED8
:1001F0000DDB02FA0EFC22FA05F2801841F1000133
:1002000003FA0EF2801843FA05F359410EE0A5F106
:1002100020050EF1200E012A03FA0EFC28BF4CF037
:10022000020C43FA05F3C01851EBE37101F00045ED
:1002300007D54FF0000EDCF1000C7EEB00006EEBFA
:100240000101B1F5801F1BD3B1F5001F0CD3490884
:100250005FEA30004FEA3C0C04F101044FEA4452DB
:1002600012F5800F80F09A80BCF1004F08BF5FEA62
:10027000500C50F1000041EB045141EA050130BD42
:100280005FEA4C0C404141EB010111F4801FA4F1E5
:100290000104E9D191F0000F04BF01460020B1FA3A
:1002A00081F308BF2033A3F10B03B3F120020CDA72
:1002B0000C3208DD02F1140CC2F10C0201FA0CF050
:1002C00021FA02F10CE002F11402D8BFC2F1200CB5
:1002D00001FA02F120FA0CFCDCBF41EA0C0190406B
:1002E000E41AA2BF01EB0451294330BD6FEA0404B4
:1002F0001F3C1CDA0C340EDC04F11404C4F120029F
:1003000020FA04F001FA02F340EA030021FA04F3B0
:1003100045EA030130BDC4F10C04C4F1200220FA07
:1003200002F001FA04F340EA0300294630BD21FA45
:1003300004F0294630BD94F0000F83F4801306BF0B
:1003400081F480110134013D4EE77FEA645C18BFFF
:100350007FEA655C29D094EA050F08BF90EA020F96
:1003600005D054EA000C04BF1946104630BD91EA8E
:10037000030F1EBF0021002030BD5FEA545C05D191
:100380004000494128BF41F0004130BD14F58004D0
:100390003CBF01F5801130BD01F0004545F0FE4144
:1003A00041F470014FF0000030BD7FEA645C1ABF79
:1003B000194610467FEA655C1CBF0B46024650EAB0
:1003C000013406BF52EA033591EA030F41F40021DC
:1003D00030BD00BF90F0000F04BF0021704730B562
:1003E0004FF4806404F132044FF000054FF0000137
:1003F00050E700BF90F0000F04BF0021704730B5F8
:100400004FF4806404F1320410F0004548BF4042CC
:100410004FF000013EE700BF42004FEAE2014FEA21
:1004200031014FEA02701FBF12F07F4393F07F4FFC
:1004300081F06051704732F07F4208BF704793F0FF
:100440007F4F04BF41F40021704730B54FF4607412
:1004500001F0004521F000411CE700BF50EA010215
:1004600008BF704730B54FF000050AE050EA0102BE
:1004700008BF704730B511F0004502D5404261EB2E
:1004800041014FF4806404F132045FEA915C3FF46F
:10049000D8AE4FF003025FEADC0C18BF03325FEA0C
:1004A000DC0C18BF033202EBDC02C2F1200300FABD
:1004B00003FC20FA02F001FA03FE40EA0E0021FAE2
:1004C00002F11444BDE600BF70B54FF0FF0C4CF4D0
:1004D000E06C1CEA11541DBF1CEA135594EA0C0F82
:1004E00095EA0C0F00F0DEF82C4481EA030621EABD
:1004F0004C5123EA4C5350EA013518BF52EA0335F8
:1005000041F4801143F4801338D0A0FB02CE4FF0A9
:100510000005E1FB02E506F00042E0FB03E54FF0D9
:100520000006E1FB03569CF0000F18BF4EF0010ED1
:10053000A4F1FF04B6F5007F64F5407404D25FEACD
:100540004E0E6D4146EB060642EAC62141EA555180
:100550004FEAC52040EA5E504FEACE2EB4F1FD0CC2
:1005600088BFBCF5E06F1ED8BEF1004F08BF5FEA40
:10057000500E50F1000041EB045170BD06F00046F2
:1005800046EA010140EA020081EA0301B4EB5C049F
:10059000C2BFD4EB0C0541EA045170BD41F4801197
:1005A0004FF0000E013C00F3AB8014F1360FDEBFBC
:1005B000002001F0004170BDC4F10004203C35DA98
:1005C0000C341BDC04F11404C4F1200500FA05F31B
:1005D00020FA04F001FA05F240EA020001F00042BC
:1005E00021F0004110EBD37021FA04F642EB060132
:1005F0005EEA430E08BF20EAD37070BDC4F10C045C
:10060000C4F1200500FA04F320FA05F001FA04F21F
:1006100040EA020001F0004110EBD37041F100010B
:100620005EEA430E08BF20EAD37070BDC4F1200516
:1006300000FA05F24EEA020E20FA04F301FA05F27E
:1006400043EA020321FA04F001F0004121FA04F226
:1006500020EA020000EBD3705EEA430E08BF20EAF6
:10066000D37070BD94F0000F0FD101F00046400030
:1006700041EB010111F4801F08BF013CF7D041EAB2
:10068000060195F0000F18BF704703F000465200B6
:1006900043EB030313F4801F08BF013DF7D043EA87
:1006A0000603704794EA0C0F0CEA135518BF95EA3D
:1006B0000C0F0CD050EA410618BF52EA4306D1D1C4
:1006C00081EA030101F000414FF0000070BD50EAE3
:1006D000410606BF1046194652EA430619D094EA6D
:1006E0000C0F02D150EA013613D195EA0C0F05D157
:1006F00052EA03361CBF104619460AD181EA0301AB
:1007000001F0004141F0FE4141F470014FF0000062
:1007100070BD41F0FE4141F4780170BD70B54FF0FD
:10072000FF0C4CF4E06C1CEA11541DBF1CEA13557D
:1007300094EA0C0F95EA0C0F00F0A7F8A4EB05045F
:1007400081EA030E52EA03354FEA013100F0888056
:100750004FEA03334FF0805545EA131343EA12631F
:100760004FEA022245EA111545EA10654FEA0026D4
:100770000EF000419D4208BF964244F1FD0404F58D
:10078000407402D25B084FEA3202B61A65EB0305E9
:100790005B084FEA32024FF480104FF4002CB6EBA6
:1007A000020E75EB030E22BFB61A754640EA0C0026
:1007B0005B084FEA3202B6EB020E75EB030E22BF66
:1007C000B61A754640EA5C005B084FEA3202B6EBA7
:1007D000020E75EB030E22BFB61A754640EA9C0066
:1007E0005B084FEA3202B6EB020E75EB030E22BF36
:1007F000B61A754640EADC0055EA060E18D04FEAF4
:10080000051545EA16754FEA06164FEAC30343EA93
:1008100052734FEAC2025FEA1C1CC0D111F4801F60
:100820000BD141EA00014FF000004FF0004CB6E759
:1008300011F4801F04BF01430020B4F1FD0C88BFF8
:10084000BCF5E06F3FF6AFAEB5EB030C04BFB6EB03
:10085000020C5FEA500C50F1000041EB045170BDF6
:100860000EF0004E4EEA113114EB5C04C2BFD4EB23
:100870000C0541EA045170BD41F480114FF0000EA7
:10088000013C90E645EA060E8DE60CEA135594EA23
:100890000C0F08BF95EA0C0F3FF43BAF94EA0C0F26
:1008A0000AD150EA01347FF434AF95EA0C0F7FF49B
:1008B00025AF104619462CE795EA0C0F06D152EAEF
:1008C00003353FF4FDAE1046194622E750EA4106D3
:1008D00018BF52EA43067FF4C5AE50EA41047FF4E4
:1008E0000DAF52EA43057FF4EBAE12E74FF0FF3C49
:1008F00006E000BF4FF0010C02E000BF4FF0010C1A
:100900004DF804CD4FEA410C7FEA6C5C4FEA430C92
:1009100018BF7FEA6C5C1BD001B050EA410C0CBFE1
:1009200052EA430C91EA030F02BF90EA020F002043
:10093000704710F1000F91EA030F58BF994208BFAA
:1009400090422CBFD8176FEAE37040F00100704767
:100950004FEA410C7FEA6C5C02D150EA013C07D1BE
:100960004FEA430C7FEA6C5CD6D152EA033CD3D009
:100970005DF8040B704700BF8446104662468C4603
:100980001946634600E000BF01B5FFF7B7FF002836
:1009900048BF10F1000F01BD4DF808EDFFF7F4FF5F
:1009A0000CBF012000205DF808FB00BF4DF808EDEA
:1009B000FFF7EAFF34BF012000205DF808FB00BF0D
:1009C0004DF808EDFFF7E0FF94BF012000205DF82F
:1009D00008FB00BF4DF808EDFFF7CEFF94BF0120E4
:1009E00000205DF808FB00BF4DF808EDFFF7C4FFDD
:1009F00034BF012000205DF808FB00BF80F00040FC
:100A000002E000BF81F0004142001FBF5FEA4103E6
:100A100092EA030F7FEA226C7FEA236C6AD04FEAE6
:100A20001262D2EB1363C1BFD2184140484041402B
:100A3000B8BF5B42192B88BF704710F0004F40F4DD
:100A4000000020F07F4018BF404211F0004F41F4F9
:100A5000000121F07F4118BF494292EA030F3FD0C5
:100A6000A2F1010241FA03FC10EB0C00C3F12003D8
:100A700001FA03F100F0004302D5494260EB400067
:100A8000B0F5000F13D3B0F1807F06D340084FEAD2
:100A9000310102F10102FE2A51D2B1F1004F40EBC7
:100AA000C25008BF20F0010040EA0300704749002F
:100AB00040EB000010F4000FA2F10102EDD1B0FAFA
:100AC00080FCACF1080CB2EB0C0200FA0CF0AABFEF
:100AD00000EBC25052421843BCBFD040184370478D
:100AE00092F0000F81F4000106BF80F40000013293
:100AF000013BB5E74FEA41037FEA226C18BF7FEA6A
:100B0000236C21D092EA030F04D092F0000F08BFAB
:100B10000846704790EA010F1CBF0020704712F092
:100B20007F4F04D1400028BF40F00040704712F1D1
:100B300000723CBF00F50000704700F0004343F036
:100B4000FE4040F4000070477FEA226216BF08466C
:100B50007FEA23630146420206BF5FEA412390EA2F
:100B6000010F40F4800070474FF0000304E000BF25
:100B700010F0004348BF40425FEA000C08BF7047D6
:100B800043F0964301464FF000001CE050EA01029A
:100B900008BF70474FF000030AE000BF50EA0102AF
:100BA00008BF704711F0004302D5404261EB41019C
:100BB0005FEA010C02BF84460146002043F0B643C1
:100BC00008BFA3F18053A3F50003BCFA8CF2083AE6
:100BD000A3EBC25310DB01FA02FC634400FA02FCEF
:100BE000C2F12002BCF1004F20FA02F243EB0200F6
:100BF00008BF20F00100704702F1200201FA02FC58
:100C0000C2F1200250EA4C0021FA02F243EB02004A
:100C100008BF20EADC7070474FF0FF0C1CEAD0528E
:100C20001EBF1CEAD15392EA0C0F93EA0C0F6FD04F
:100C30001A4480EA010C400218BF5FEA41211ED02D
:100C40004FF0006343EA501043EA5111A0FB013119
:100C50000CF00040B1F5000F3EBF490041EAD371EE
:100C60005B0040EA010062F17F02FD2A1DD8B3F16A
:100C7000004F40EBC25008BF20F00100704790F0D9
:100C8000000F0CF0004C08BF49024CEA502040EA2B
:100C900051207F3AC2BFD2F1FF0340EAC2507047F1
:100CA00040F400004FF00003013A5DDC12F1190F2F
:100CB000DCBF00F000407047C2F10002410021FAA1
:100CC00002F1C2F1200200FA02FC5FEA310040F1B9
:100CD000000053EA4C0308BF20EADC70704792F032
:100CE000000F00F0004C02BF400010F4000F013A6A
:100CF000F9D040EA0C0093F0000F01F0004C02BF65
:100D0000490011F4000F013BF9D041EA0C018FE7D3
:100D10000CEAD15392EA0C0F18BF93EA0C0F0AD0D9
:100D200030F0004C18BF31F0004CD8D180EA0100FF
:100D300000F00040704790F0000F17BF90F0004F98
:100D4000084691F0000F91F0004F14D092EA0C0F7A
:100D500001D142020FD193EA0C0F03D14B0218BF0D
:100D6000084608D180EA010000F0004040F0FE4053
:100D700040F40000704740F0FE4040F440007047EF
:100D80004FF0FF0C1CEAD0521EBF1CEAD15392EA6E
:100D90000C0F93EA0C0F69D0A2EB030280EA010C5E
:100DA00049024FEA402037D04FF0805343EA1111F7
:100DB00043EA10130CF000408B4238BF5B0042F155
:100DC0007D024FF4000C8B4224BF5B1A40EA0C00FA
:100DD000B3EB510F24BFA3EB510340EA5C00B3EB2C
:100DE000910F24BFA3EB910340EA9C00B3EBD10F1A
:100DF00024BFA3EBD10340EADC001B0118BF5FEA6C
:100E00001C1CE0D1FD2A3FF650AF8B4240EBC25094
:100E100008BF20F0010070470CF0004C4CEA502055
:100E20007F32C2BFD2F1FF0340EAC250704740F4A4
:100E300000004FF00003013A37E792F0000F00F096
:100E4000004C02BF400010F4000F013AF9D040EA14
:100E50000C0093F0000F01F0004C02BF490011F4A8
:100E6000000F013BF9D041EA0C0195E70CEAD153A0
:100E700092EA0C0F08D142027FF47DAF93EA0C0F87
:100E80007FF470AF084676E793EA0C0F04D14B026B
:100E90003FF44CAF08466EE730F0004C18BF31F01D
:100EA000004CCAD130F000427FF45CAF31F0004317
:100EB0007FF43CAF5FE700BF844641EA000313F0D4
:100EC000030349D1403A23D30B6803604B68436066
:100ED0008B688360CB68C3600B6903614B694361B6
:100EE0008B698361CB69C3610B6A03624B6A43629E
:100EF0008B6A8362CB6AC3620B6B03634B6B436386
:100F00008B6B8363CB6BC36340304031403ADBD2A1
:100F100030320BD30B6803604B6843608B6883608F
:100F2000CB68C36010301031103AF3D20C3205D3C5
:100F300051F8043B40F8043B043AF9D2043208D09B
:100F4000D2071CBF11F8013B00F8013B01D30B880D
:100F500003806046704700BF082A13D38B07B1D0C7
:100F600010F00303AED0C3F10403D21ADB071CBF99
:100F700011F8013B00F8013BA4D331F8023B20F803
:100F8000023B9FE7043AD9D3013A11F8013B00F83C
:100F9000013BF9D20B7803704B7843708B788370E8
:100FA000604670474FEA410C7FEA6C5C02D150EA20
:100FB000013C0AD14FEA430C7FEA6C5C02D152EA51
:100FC000033C02D14FF0000070474FF00100704722
:100FD0004FEA410212F5001215D211D56FF4787361
:100FE000B3EB625212D94FEAC12343F0004343EA04
:100FF000505311F0004F23FA02F018BF40427047DF
:101000004FF00000704750EA013005D111F0004068
:1010100008BF6FF0004070474FF00000704700BFFE
:1010200053B94AB9002908BF00281CBF4FF0FF314F
:101030004FF0FF3000F074B9ADF1080C6DE904CE4B
:1010400000F006F8DDF804E0DDE9022304B07047A3
:101050002DE9F0478C460446089E002B40F0868020
:101060008A42154648D9B2FA82F24AB1C2F1200743
:1010700001FA02F320FA07F7954047EA030C94407F
:101080004FEA154EBCFBFEF71FFA85F80EFB17C39F
:1010900007FB08F9210C41EA0343994509D9EB18EC
:1010A00007F1FF3180F0E180994540F2DE80023F98
:1010B0002B44A3EB0903B3FBFEF00EFB103300FB44
:1010C00008F1A4B244EA0344A14209D92C1900F161
:1010D000FF3380F0C880A14240F2C58002382C4422
:1010E00040EA07400027641A1EB10023D440C6E935
:1010F00000433946BDE8F087002A54D0B2FA82F2A4
:10110000002A40F0B4800127491B4FEA15481FFA16
:1011100085F9B1FBF8FE08FB1E1109FB0EF04FEA42
:10112000144C4CEA0143984207D9EB180EF1FF31F9
:1011300002D2984200F2EB808E461B1AB3FBF8F005
:1011400008FB103309FB00F9A4B244EA0344A145AB
:1011500007D92C1900F1FF3302D2A14500F2DB8040
:101160001846A4EB090440EA0E40BDE78B4208D9BB
:10117000002E75D00027C6E9000138463946BDE883
:10118000F087B3FA83F77FB98B4202D3824200F231
:10119000BC80841A61EB030301209C46002EA8D07A
:1011A000C6E9004CA5E7FFDEC7F12005BB4022FAE7
:1011B00005FC4CEA030C21FA05F44FEA1C4EB4FB83
:1011C000FEF91FFA8CF80EFB194420FA05F3B9401A
:1011D00009FB08FA19430B0C43EA0444A24502FA3E
:1011E00007F200FA07F30BD91CEB040409F1FF30F6
:1011F00080F08980A24540F28680A9F1020964440A
:10120000A4EB0A04B4FBFEF00EFB104400FB08FA4A
:1012100089B241EA0444A24508D91CEB040400F158
:10122000FF316CD2A2456AD90238644440EA0940D1
:10123000A0FB0289A4EB0A044C454146CE4655D397
:1012400052D0002E6AD05A1A64EB0E0404FA05F547
:1012500022FA07F3FC401D43C6E90054002748E783
:101260003746304645E718463AE70F4621E79540AE
:10127000C2F1200321FA03F04FEA1548B0FBF8F75A
:101280001FFA85F908FB170E24FA03FC914007FBAF
:1012900009FA4CEA0101080C40EA0E40824504FAC2
:1012A00002F407D9281807F1FF332AD2824528D93A
:1012B000023F2844A0EB0A00B0FBF8FC08FB1C002E
:1012C0000CFB09F389B241EA00418B4208D9691845
:1012D0000CF1FF3011D28B420FD9ACF1020C294432
:1012E000C91A4CEA074714E74345AAD2B8EB0201F2
:1012F00069EB0C0201389646A3E78446F0E70846FE
:1013000094E71F46D6E781467AE7384646E7AEF1CE
:10131000020E2B4411E702382C4422E73746E8E658
:10132000704700BF30B589B000240494059406943A
:1013300007941D4B9A6942F010029A619A6902F073
:1013400010020092009A9A6942F020029A619A690A
:1013500002F020020192019A9A6942F004029A6115
:101360009A6902F004020292029A9A6942F0080213
:101370009A619B6903F008030393039B0B4D22467C
:101380004FF40051284600F0BDFD4FF40053049384
:101390000123059306940223079304A9284600F02D
:1013A000C5FC09B030BD00BF001002400010014074
:1013B00008B50B480B4B03600B4B43600023836065
:1013C000C3604FF48042026143618361C361036281
:1013D00000F0DEFF00B908BD00F08EF8FBE700BFAB
:1013E0006C0A002000540040801A060010B586B038
:1013F000002302930393049305930268114B9A42CE
:1014000001D006B010BD104CA36943F00803A361DE
:10141000A36903F008030093009BC02302931223E7
:1014200003930323059302A9084800F07FFCE369B6
:1014300043F40013E361E36903F400130193019B98
:10144000DFE700BF0054004000100240000C0140E4
:1014500000B583B001904FF0FF33012201A903488A
:1014600001F096FE019803B05DF804FB200B00200C
:1014700010B590B02422002107A801F021FF00241C
:101480000194029403940494059402230693012387
:101490000A9310230B9306A801F0B6FA0F230193C9
:1014A0000294039404940594214601A801F0ECFCF5
:1014B00010B010BD08B500F0B9FBFFF7D9FFFFF77A
:1014C00031FFFFF775FF00F00FFB084800F015F83B
:1014D0000128FAD0064C2146044800F03DF9B4F941
:1014E0002210044801F03CFFF4E700BF6C0A002022
:1014F000C00A0020B487000870472DE9F04186B08B
:10150000054664230293012301930DF11702009213
:101510007522D02101F0CAF89DF81730682B03D04E
:10152000012006B0BDE8F08100248DF816404FF090
:101530006408CDF80880012601960DF11607009782
:1015400033466B22D021284600F0FEFF07238DF89A
:101550001630CDF808800196009733461922D02125
:10156000284600F0F1FF8DF81640CDF8088001966E
:10157000009733461C22D021284600F0E5FF8DF865
:101580001640CDF808800196009733461B22D021E3
:10159000284600F0D9FF2046C3E72DE9F0478EB07A
:1015A0008246CDE90623D0E90834CDE904341A4651
:1015B0002346DDE91601FEF7CFFDDDE91823FEF72E
:1015C00083FFDAE90623FEF7C9FDCDE90801DAE970
:1015D0001045DDE9182320462946FEF775FFCDE9C1
:1015E0000201DAE90C8942464B46FEF7B5FDDAE91D
:1015F0000E6732463B46FEF7AFFDDAE90023FEF701
:10160000ADFDDDE91823FEF75FFFDAE90A23FEF7F7
:10161000A5FDCDE90001DDE9022340464946FEF77C
:101620009BFDCDE90A01DDE9022330463946FEF78C
:1016300093FDCDE90201DDE91823DAE90201FEF7A5
:1016400043FF02460B4620462946FEF787FDCDE9BB
:101650000C01DAE90423DDE9006730463946FEF77C
:101660007DFD04460D4602460B46CDE90067304637
:101670003946FFF753F88046894622462B46DDE976
:101680000201FFF74BF806460F46DDE90845224602
:101690002B46DDE90601FEF75FFD02460B46CDE96C
:1016A000062340464946FEF70FFF02460B462046FA
:1016B0002946FEF753FD04460D46CAE90645DDE915
:1016C000062330463946FEF7FFFE02460B46DDE9AB
:1016D0000401FEF743FDCAE9080142464B46DDE935
:1016E0000001FEF7F1FE02460B46DDE90001FEF7C0
:1016F00033FDCAE90A0142464B46DDE90A89404604
:101700004946FEF7E1FE02460B4640464946FEF7D3
:1017100023FDCAE90C0132463B46DDE90001FEF734
:10172000D3FE02460B46DDE90201FEF715FDCAE9CC
:101730000E0132463B4640464946FEF7C5FE02468C
:101740000B46DDE90C01FEF707FDCAE91001204652
:1017500029460EB0BDE8F0872DE9F04F89B00C4660
:10176000642302930E23019304AB009301233B22D5
:10177000D02100F09BFF9DF810309DF8110040EA49
:10178000032000B220809DF812309DF813A04AEA91
:10179000032A0FFA8AFAA4F802A09DF814309DF8E3
:1017A000159049EA03290FFA89F9A4F804909DF8E5
:1017B00016502D022DB29DF817301D439DF818309C
:1017C0009DF8198048EA03280FFA88F8A4F82080C9
:1017D0009DF81A309DF81B7047EA03273FB26784D3
:1017E0009DF81C309DF81D6046EA032636B2A6849B
:1017F000FEF700FE0022744BFEF766FEC4E902010C
:101800005046FEF7F7FD00226F4BFEF75DFEC4E980
:1018100004014846FEF7EEFD65A3D3E90023FEF779
:101820007DFFC4E906012846FFF7A2F96749FFF7E3
:10183000A7FA6749FFF7E8F820644046FEF7DAFDAB
:101840005DA3D3E90023FEF769FFC4E90A01384626
:10185000FEF7D0FD58A3D3E90023FEF75FFFC4E9EC
:101860000C013046FEF7C6FD53A3D3E90023FEF773
:1018700055FFC4E90E0100F0F7F9564D2B68C01A68
:10188000FEF7A8FD0022544BFEF748FF06460F4620
:1018900000F0EAF92860B4F90000B4F9043003FB61
:1018A00003F300FB0030FEF7A5FD06F0A5FD804622
:1018B000894600220023FFF76FF888B9B4F90200C7
:1018C000FEF798FD42464B46FEF728FF06F004FC63
:1018D0003BA3D3E90023FEF7F7FD82468B4603E0E6
:1018E0004FF0000A4FF0000BB4F900506D42B4F90C
:1018F0000400FEF77FFD804689462846FEF77AFD04
:1019000042464B4606F076FD2DA3D3E90023FEF7B1
:10191000DBFD804689460022304BFFF747F830B1A7
:1019200000222F4BD4E91401FFF75EF870B90022B2
:101930002B4B40464946FFF757F800282AD0002293
:10194000264BD4E91401FFF731F818B3254BC3E94E
:101950000689C4E91489656D0022214B206D25F0AC
:101960000041FFF741F828B1E16AA26A01F10043A2
:10197000C4E90A23CDE90267D4E90C23CDE90023A9
:1019800052465B461848FFF708FEC4E9120109B049
:10199000BDE8F08FCDE90267D4E90C23CDE900233F
:1019A00042464B460F48FFF7F8FDC4E91401D2E761
:1019B000000000000029CC400000000000606040F2
:1019C000F8C1631ADCA54C400000103F0000AA4398
:1019D000B81E1242180B002000408F40008056C0F5
:1019E00000805640480000200000002082B00E4BCE
:1019F0009A6942F001029A619A6902F0010200922A
:101A0000009ADA6942F08052DA61DB6903F08053B0
:101A10000193019B054A536823F0E06343F0007390
:101A2000536002B0704700BF001002400000014048
:101A30007047FEE7FEE7FEE7FEE770477047704736
:101A400008B500F005F908BD70B50C46164600252E
:101A5000B54207DAAFF30080214601F8010B0135EA
:101A60000C46F5E7304670BD70B50C4616460025AD
:101A7000B54205DA14F8010BFFF7EAFC0135F7E788
:101A8000304670BD4FF0FF3070474FF400534B604D
:101A900000207047012070470020704710B50346B2
:101AA0000C4A0D490D48006840B10C4800680344D9
:101AB000521A934206D8094A136010BD0748084CD1
:101AC0000460F2E701F0D2FB0C2303604FF0FF301B
:101AD000F3E700BF00500020000400001C0B0020B2
:101AE000C00B00207047000008B50A480A4B03608D
:101AF0004FF4E133436000238360C36003610C2231
:101B000042618361C36101F014FB00B908BDFFF7B6
:101B1000F3FCFBE7200B00200038014010B586B035
:101B2000002302930393049305930268174B9A4290
:101B300001D006B010BD03F558439A6942F48042C3
:101B40009A619A6902F480420092009A9A6942F07E
:101B500004029A619B6903F004030193019B4FF413
:101B6000007302930223039303230593084C02A9F5
:101B7000204600F0DBF84FF48063029300230393C8
:101B8000049302A9204600F0D1F8D2E700380140C2
:101B900000080140002103E00B4B5B584350043127
:101BA0000A480B4B42189A42F6D30A4A02E0002335
:101BB00042F8043B084B9A42F9D3FFF793FF01F038
:101BC0005BFBFFF777FC7047B48A00080000002039
:101BD0004C0A0020500A0020C00B0020FEE7000045
:101BE00010B504460E4B18784FF47A73B3FBF0F33C
:101BF0000C4A1068B0FBF3F000F082F868B90F2CC3
:101C000001D901200AE0002221464FF0FF3000F008
:101C100043F8054B1C60002000E0012010BD00BF10
:101C200094000020900000209800002008B5074A8A
:101C3000136843F010031360032000F01BF800202A
:101C4000FFF7CEFFFFF7D2FE002008BD00200240C4
:101C5000034A1168034B1B780B441360704700BFA5
:101C6000600B002094000020014B1868704700BFF3
:101C7000600B0020074AD36823F4E0631B041B0CAD
:101C8000000200F4E060184340F0BF6040F4003010
:101C9000D060704700ED00E030B4174BDB68C3F351
:101CA0000223C3F10704042C28BF04241D1D062DA4
:101CB00001D9033B00E000234FF0FF3505FA04F49F
:101CC00021EA0401994005FA03F322EA03031943C8
:101CD000002809DB0901C9B200F1604000F561404C
:101CE00080F8001330BC704700F00F000901C9B242
:101CF000024B1954F6E700BF00ED00E014ED00E0E0
:101D00000138B0F1807F0AD2064B5860064AF021B4
:101D100082F823100020986007221A607047012083
:101D2000704700BF10E000E000ED00E0F0B482B0CA
:101D300000263546A0E0002A58D0012A10D1CE68EE
:101D40000EE06A4FBA4251D048D9694FBA424DD0DD
:101D500007F58037BA4249D0A7F58017BA4245D077
:101D6000FF2B57D88446FF2B57D8AC00DCF8002057
:101D70000F27A74022EA070206FA04F42243CCF810
:101D800000204A6812F0805F75D05A4A946944F086
:101D900001049461926902F001020192019AAC0877
:101DA000A71C554A52F8272005F00307BF004FF043
:101DB0000F0C0CFA07FC22EA0C0C504A904232D06D
:101DC00002F58062904271D002F5806290426FD03D
:101DD00002F58062904224D0042225E0A7F5801706
:101DE000BA4203D007F58037BA42B9D18A687AB1CE
:101DF000012A08D044610826B2E7CE680836AFE76A
:101E0000CE680C36ACE704610826A9E70026A7E7F0
:101E10000426A5E700F1040CA5E7A5F10804A40039
:101E2000A4E7032200E00022BA4042EA0C02023496
:101E3000314F47F824204A6812F4803F3AD0304CA2
:101E400022681A4322604A6812F4003F38D02C4CB2
:101E500062681A4362604A6812F4801F36D0284CC8
:101E6000A2681A43A2604A6812F4001F34D0244CBE
:101E7000E2681343E36001350B6833FA05F231D0B1
:101E80000124AC4023409C42F5D14A68122AB7D0C5
:101E90003FF657AF022AB0D07FF64DAF032AB5D038
:101EA000112A7FF45DAFCE68043659E70122BBE703
:101EB0000222B9E7124C226822EA03022260C2E73A
:101EC0000F4C626822EA03026260C4E70C4CA2680D
:101ED00022EA0302A260C6E7094CE26822EA030391
:101EE000E360C8E702B0F0BC704700BF00002110FB
:101EF00000003110001002400000014000080140C5
:101F0000000401400AB10161704709040161704792
:101F100003685A6912F4806F01D1002070476FF492
:101F200080625A6100230363202280F83D2080F8FC
:101F30003E30026C42F00402026480F83C30012022
:101F40007047F8B506460C4617461D4622E0FFF7D7
:101F50008BFE069BC01AA84200D8DDB9002333636C
:101F6000202286F83D2086F83E30326C42F0200276
:101F7000326486F83C3001201AE033689B6924EA19
:101F800003039BB2B3FA83F35B099F420FD1B5F110
:101F9000FF3FDCD1C4F30743012BEED133685B690B
:101FA00024EA03039BB2B3FA83F35B09EDE7002055
:101FB000F8BDF8B504460D4616461F463CE01A68C3
:101FC00042F400721A6023686FF480625A61002341
:101FD0002363202284F83D2084F83E30226C42F0B6
:101FE0000402226484F83C30012033E0FFF73CFE19
:101FF000C01BB04200D8FEB900232363202284F81E
:102000003D2084F83E30226C42F02002226484F8A5
:102010003C3001201EE023689B6925EA03039BB244
:10202000003318BF0123A3B123685A6912F4806FEB
:10203000C5D1B6F1FF3FD9D1C5F30743012BEAD192
:1020400023685B6925EA03039BB2003318BF0123B1
:10205000E9E70020F8BD70B504460D461646236832
:102060005B6913F0800F1CD12046FFF751FFD0B9F8
:10207000B5F1FF3FF3D0FFF7F7FD801BA84201D871
:10208000002DECD100232363202284F83D2084F826
:102090003E30226C42F02002226484F83C30012061
:1020A00000E0002070BD0120FCE700002DE9F041B8
:1020B00084B004460E46174698460B9D0268136886
:1020C00043F48073136000950A9B00224FF00111C6
:1020D000FFF737FF60B9236806F0FE061E612B4646
:1020E0000A9A27492046FFF764FF70B1012308E0F0
:1020F00023681B6813F4807F02D04FF400732364BD
:102100000323184604B0BDE8F0810023039323683D
:102110005A6903929B690393039B2A460A992046B6
:10212000FFF799FF034630B9B8F1010F0ED12268CD
:10213000FFB21761E5E7236C042B01D00123E0E730
:102140002268136843F400731360F7E723683A0AC0
:102150001A612A460A992046FFF77DFF034618B9FF
:102160002268FFB21761CCE7236C042B01D0012356
:10217000C7E72268136843F400731360F7E700BFF2
:10218000020001002DE9F04184B004460E461746D6
:1021900098460B9D0268136843F4806313600268DD
:1021A000136843F48073136000950A9B00224FF07C
:1021B0000111FFF7C6FE68B9F6B2236806F0FE0209
:1021C0001A612B460A9A41492046FFF7F2FE70B188
:1021D000012308E023681B6813F4807F02D04FF4CA
:1021E000007323640323184604B0BDE8F081002384
:1021F000039323685A6903929B690393039B2A46BE
:102200000A992046FFF727FF80B9B8F1010F18D1CE
:102210002368FFB21F612A460A992046FFF71BFF79
:1022200068B3236C042B24D00123DCE7236C042B3C
:1022300001D00123D7E72268136843F400731360C9
:10224000F7E723683A0A1A612A460A992046FFF7F7
:1022500002FF18B92368FFB21F61DCE7236C042B6F
:1022600001D00123BFE72268136843F400731360B1
:10227000F7E72268136843F400731360D4E7226819
:10228000136843F48073136000950A9B00224FF09B
:1022900001112046FFF755FE70B9236846F001068C
:1022A0001E612B460A9A09492046FFF782FE034623
:1022B000002898D0012396E723681B6813F4807FD9
:1022C00002D04FF40073236403238CE70200010063
:1022D00070B504460D46164623685B6913F0040F7B
:1022E0001CD12046FFF714FED0B9B5F1FF3FF3D063
:1022F000FFF7BAFC801BA84201D8002DECD10023C7
:102300002363202284F83D2084F83E30226C42F082
:102310002002226484F83C30012000E0002070BDDF
:102320000120FCE770B505460C4616462B685A6935
:1023300012F0400F29D15A6912F0100F15D1FFF792
:1023400093FC801BA04201D8002CEFD100232B630B
:10235000202285F83D2085F83E302A6C42F020028C
:102360002A6485F83C30012070BD6FF010025A617C
:1023700000232B63202285F83D2085F83E302A6C0F
:102380002A6485F83C300120EEE70020ECE70000ED
:10239000002800F0CB80F8B5044690F83D30002BC3
:1023A00076D0242384F83D302268136823F001039B
:1023B00013602268136843F40043136022681368B3
:1023C00023F40043136000F01BFE6268594B9A42ED
:1023D00063D8594B98428CBF00230123002B40F057
:1023E000A780564BA3FB00239B0C21684A6822F070
:1023F0003F021A434A6025682A6A22F03F02666853
:102400004C498E424FD8013313432B622568E9694A
:1024100021F44F4121F0FF016368464A93424CD8B2
:1024200001385B00B0FBF3F0013040F6FC7318425A
:1024300078D0C0F30B030B43EB6121680B6823F0EA
:10244000C003E269206A024313430B6021688B6872
:1024500023F4034323F0FF032269E068024313439C
:102460008B602168CB6823F0FF036269A069024397
:102470001343CB602268136843F00103136000200C
:102480002064202384F83D30206384F83E00F8BDAA
:1024900080F83C30FEF7AAFF83E7294B98428CBFB7
:1024A000002301239AE74FF4967101FB03F32549BA
:1024B000A1FB03139B090133A6E7A268BAB9461E24
:1024C00003EB4307B6FBF7F60136C6F30B06B6FA85
:1024D00086F6760946BBC2B9421E03EB4303B2FB44
:1024E000F3F20132C2F30B0242F40043A3E7461EAB
:1024F00003EB830707EB8707B6FBF7F60136C6F356
:102500000B06B6FA86F67609E4E7421E03EB830370
:1025100003EB8303B2FBF3F20132C2F30B0242F48A
:10252000404388E7042386E7012384E701207047BE
:102530000120ACE7A08601007F841E0083DE1B43E0
:10254000FF083D00D34D62102DE9F04182B00446F2
:102550000E4617469846FFF787FB94F83D30DBB2EE
:10256000202B04D00223184602B0BDE8F0810546B6
:102570000090192301224B492046FFF7E2FC002876
:1025800040F0898094F83C30012B00F086800123D4
:1025900084F83C3023681A6812F0010F03D11A68DE
:1025A00042F001021A602268136823F4006313608A
:1025B000212384F83D30402384F83E3000232364F7
:1025C000089B6362BDF824306385638D2385364B99
:1025D000E36201950A9B009343463A463146204602
:1025E000FFF764FD00285AD1238D002B33D02A46F3
:1025F0000A992046FFF72FFD10BB626A2368127804
:102600001A61616A4B1C6362238D013B9BB2238577
:10261000628D013A92B262852268506910F0040F0F
:10262000E2D0002BE0D04B781361636A0133636220
:10263000238D013B2385638D013B9BB26385D3E7EB
:10264000236C042B01D001238DE72268136843F427
:1026500000731360F7E72A460A992046FFF738FE11
:10266000034650B1236C042B01D001237BE7226881
:10267000136843F400731360F7E721680A6842F4B3
:1026800000720A60202284F83D20002284F83E2057
:1026900084F83C2067E7022365E7022363E7012310
:1026A00061E700BF020010000000FFFF2DE9F041CC
:1026B00088B004460E461746984600230793FFF756
:1026C000D3FA94F83D30DBB2202B04D002263046FA
:1026D00008B0BDE8F08105460090192301229B490E
:1026E0002046FFF72EFC002840F06B8194F83C3028
:1026F000012B00F06881012384F83C3023681A68BC
:1027000012F0010F03D11A6842F001021A60226828
:10271000136823F400631360222384F83D304023C0
:1027200084F83E30002323640E9B6362BDF83C3086
:102730006385638D2385864BE3620195109B00932F
:1027400043463A4631462046FFF71CFD0646002820
:1027500040F03B81238D5BB9039323685A69039250
:102760009A690392039A1A6842F400721A6073E03D
:10277000012B0FD0022B21D02268136843F4806311
:1027800013600023069323685A6906929B69069397
:10279000069B61E02268136823F48063136072B6BD
:1027A0000023049323685A6904929A690492049A54
:1027B0001A6842F400721A6062B64DE0226813682B
:1027C00043F40063136072B60023059323685A69CB
:1027D00005929A690592059A1A6822F480621A6035
:1027E00062B639E02A4610992046FFF79BFD002883
:1027F00040F0ED8023681A69636A1A70636A0133D6
:102800006362238D013B2385638D013B9BB263850E
:1028100022E072B62268136843F4007313602368E1
:102820001A69636A1A70636A01336362238D013B1C
:102830002385638D013B9BB2638562B623681A6969
:10284000636A1A70636A01336362238D013B2385D7
:10285000638D013B9BB26385238D002B00F0A88024
:10286000032B7DD8012BBDD0022B0AD10095109BE4
:10287000002238492046FFF764FB0028C9D0012612
:1028800025E70095109B002232492046FFF759FBAF
:10289000002840F09E802268136823F48063136050
:1028A00072B623681A69636A1A70636A01336362D5
:1028B000238D013B2385638D013B9BB26385264BB2
:1028C0001B68DB08254AA2FB03231B0A03EB8303D7
:1028D000C3EBC3030793079B013B0793079B33B3EA
:1028E00023685A6912F0040FF5D01A6842F4007296
:1028F0001A6023681A69636A1A70636A0133636233
:10290000238D013B2385638D013B9BB2638562B6BA
:1029100023681A69636A1A70636A01336362238DDC
:10292000013B2385638D013B9BB2638594E7236361
:10293000202284F83D2084F83E30226C42F02002B0
:10294000226462B684F83C300126C0E60200100022
:102950000000FFFF040001009000002089B5F8147A
:102960002A4610992046FFF7DDFC002833D1236862
:102970001A69636A1A70626A531C6362238D013B91
:102980002385638D013B9BB263852368596911F0F0
:10299000040F3FF461AF1B695370636A01336362D4
:1029A000238D013B2385638D013B9BB2638553E7F8
:1029B000202384F83D30002384F83E3084F83C30F6
:1029C00085E6022683E6022681E601267FE60126C9
:1029D0007DE601267BE6012679E600BF82B0084B42
:1029E0001B68084AA2FB03235B0A00FB03F001906B
:1029F00000BF019B5A1E0192002BF9D102B0704713
:102A000090000020D34D6210002800F0F18170B5D5
:102A100082B00446036813F0010F2CD0AA4B5B6808
:102A200003F00C03042B1DD0A74B5B6803F00C03D1
:102A3000082B12D06368B3F5803F41D0002B55D1ED
:102A400003F1804303F504331A6822F480321A60DC
:102A50001A6822F480221A6037E09B4B5B6813F4FB
:102A6000803FE7D0984B1B6813F4003F03D06368A6
:102A7000002B00F0BF81236813F0020F75D0924B3A
:102A80005B6813F00C0F5FD08F4B5B6803F00C0397
:102A9000082B54D02369002B00F089808B4B012236
:102AA0001A60FFF7E1F80546874B1B6813F0020F29
:102AB00074D1FFF7D9F8401B0228F5D903209EE115
:102AC000814A136843F480331360636843B3FFF7AC
:102AD000CBF805467C4B1B6813F4003FCBD1FFF7C6
:102AE000C3F8401B6428F5D9032088E1B3F5A02F73
:102AF00009D0754B1A6822F480321A601A6822F4E1
:102B000080221A60E1E703F18043A3F53C331A68A1
:102B100042F480221A601A6842F480321A60D4E7C4
:102B2000FFF7A2F80546684B1B6813F4003FA2D0DC
:102B3000FFF79AF8401B6428F5D903205FE1624B48
:102B40005B6813F4803FA5D15F4B1B6813F0020F45
:102B500003D02369012B40F04F815B4A136823F0B7
:102B6000F803616943EAC1031360236813F0080F97
:102B700032D0A369002B5BD0554B01221A60FFF7BE
:102B800073F80546504B5B6A13F0020F21D1FFF733
:102B90006BF8401B0228F5D9032030E14A4A13683C
:102BA00023F0F803616943EAC1031360DDE7474B93
:102BB00000221A60FFF758F80546434B1B6813F0D4
:102BC000020FD2D0FFF750F8401B0228F5D903209E
:102BD00015E10120FFF702FF236813F0040F00F056
:102BE0009780394BDB6913F0805F33D1364BDA695C
:102BF00042F08052DA61DB6903F080530193019B5C
:102C00000125344B1B6813F4807F25D0E368012B2A
:102C100036D0002B4CD103F1804303F504331A6AFC
:102C200022F001021A621A6A22F004021A622CE0EF
:102C3000274B00221A60FFF717F80546224B5B6A04
:102C400013F0020FC8D0FFF70FF8401B0228F5D988
:102C50000320D4E00025D4E71E4A136843F48073B0
:102C60001360FFF701F806461A4B1B6813F4807FC8
:102C7000CCD1FEF7F9FF801B6428F5D90320BEE014
:102C8000114A136A43F001031362E36873B3FEF75A
:102C9000EBFF06460C4B1B6A13F0020F37D1FEF711
:102CA000E3FF801B41F288339842F3D90320A6E06A
:102CB000052B11D0044B1A6A22F001021A621A6A1B
:102CC00022F004021A62E0E70010024000004242D3
:102CD00080044242007000404D4B1A6A42F00402E8
:102CE0001A621A6A42F001021A62CEE7FEF7BCFFCE
:102CF0000646474B1B6A13F0020F08D0FEF7B4FFDD
:102D0000801B41F288339842F3D9032077E0E5B97C
:102D1000E369002B72D03E4A526802F00C02082A86
:102D200056D0022B17D03B4B00221A60FEF79CFFB7
:102D30000446374B1B6813F0007F47D0FEF794FF23
:102D4000001B0228F5D9032059E0314AD36923F04A
:102D50008053D361DCE72F4B00221A60FEF784FF1B
:102D600005462B4B1B6813F0007F06D0FEF77CFF57
:102D7000401B0228F5D9032041E0236AB3F5803FC8
:102D80001AD023494B6823F47413226A606A024301
:102D900013434B601F4B01221A60FEF765FF044688
:102DA0001B4B1B6813F0007F0ED1FEF75DFF001B6D
:102DB0000228F5D9032022E0154A536823F4003392
:102DC000A1680B435360DCE7002018E0002016E008
:102DD000012B16D00E4B5B6803F48031226A9142BE
:102DE00011D103F47013626A93420ED1002006E001
:102DF00001207047012002E0012000E0002002B025
:102E000070BD0120FBE70120F9E70120F7E700BFD3
:102E1000001002406000424210B487B0164C94E8A3
:102E20000F000DF1180C0CE90F00238AADF80430E7
:102E3000124B5B6803F00C02082A03D0104807B05D
:102E400010BC7047C3F38342624412F8102C13F491
:102E5000803F0CD0094B5B68C3F34043634413F8D5
:102E6000143C074800FB02F0B0FBF3F0E7E705482D
:102E700000FB02F0E3E700BFA0870008001002405B
:102E800000127A0000093D00002800F0A08070B513
:102E90000446534B1B6803F007038B420BD2504A86
:102EA000136823F007030B431360136803F0070351
:102EB0008B4240F08E80236813F0020F17D013F07E
:102EC000040F04D0474A536843F4E0635360236817
:102ED00013F0080F04D0434A536843F4605353601F
:102EE000404A536823F0F003A068034353600D4643
:102EF000236813F0010F31D06368012B20D0022B1F
:102F000025D0384A126812F0020F64D035494A6859
:102F100022F0030213434B60FEF7A6FE0646314B38
:102F20005B6803F00C036268B3EB820F16D0FEF708
:102F30009BFE801B41F288339842F0D9032045E084
:102F4000284A126812F4003FE0D101203EE0254AF1
:102F5000126812F0007FD9D1012037E0204B1B68A6
:102F600003F00703AB420AD91D4A136823F0070395
:102F70002B431360136803F00703AB422DD1236882
:102F800013F0040F06D0174A536823F4E063E16896
:102F90000B435360236813F0080F07D0114A53689E
:102FA00023F46053216943EAC1035360FFF734FF00
:102FB0000C4B5B68C3F303130B4AD35CD8400B4B39
:102FC00018600B4B1868FEF70BFE002070BD012047
:102FD00070470120FAE70120F8E70120F6E700BF7B
:102FE0000020024000100240BC8700089000002032
:102FF00098000020014B1868704700BF9000002027
:1030000008B5FFF7F7FF044B5B68C3F30223034ADD
:10301000D35CD84008BD00BF00100240CC87000838
:1030200008B5FFF7E7FF044B5B68C3F3C223034A0D
:10303000D35CD84008BD00BF00100240CC87000818
:1030400038B504460268136923F44053C1680B4342
:10305000136183680269134342691A430168CB68AC
:1030600023F4B05323F00C031343CB60026853697D
:1030700023F4407381690B4353610268124B9A42F7
:103080001FD0FFF7BDFF00EB800000EB80006368FE
:103090009B00B0FBF3F00D4DA5FB003251096422FB
:1030A00002FB110213013233A5FB03235B0903F07A
:1030B000F00202EB011203F00F03216813448B604E
:1030C00038BDFFF7ADFFDEE7003801401F85EB514B
:1030D0002DE9F04105460F4616469846069C2B689A
:1030E0001B6837EA03030CBF01230023B3421DD141
:1030F000B4F1FF3FF3D02CB1FEF7B6FDA0EB080012
:10310000A042ECD92A68D36823F4D073D3602A682C
:10311000536923F001035361202385F8393085F882
:103120003A30002385F83830032000E00020BDE865
:10313000F08158B310B5044690F839300BB324230E
:1031400084F839302268D36823F40053D3602046D2
:10315000FFF776FF2268136923F490431361226816
:10316000536923F02A0353612268D36843F4005360
:10317000D3600020E063202384F8393084F83A30AB
:1031800010BD80F83830FEF7C9FCD8E70120704741
:103190002DE9F04182B01E4690F83930DBB2202B89
:1031A00054D104460D469046002954D0002A54D0EC
:1031B00090F83830012B52D0012380F838300023AA
:1031C000C363212380F83930FEF74EFD0746A4F88B
:1031D0002480A4F82680A368B3F5805F05D04FF063
:1031E0000008002384F8383011E0236913B14FF050
:1031F0000008F6E7A8460025F3E738F8023B226806
:10320000C3F308035360E38C013B9BB2E384E38C7C
:103210009BB273B100963B46002280212046FFF707
:1032200057FFF0B9002DE8D015F8012B23685A603C
:10323000E9E700963B46002240212046FFF748FF81
:10324000034680B9202284F8392000E00223184682
:1032500002B0BDE8F0810123F9E70123F7E702237B
:10326000F5E70323F3E70323F1E70000014B1868B8
:10327000704700BF9C00002070B50D4E0D4D761BB1
:10328000B61006D00024013455F8043B9847A642F6
:10329000F9D1094E094D05F077FA761BB61006D024
:1032A0000024013455F8043B9847A642F9D170BD7B
:1032B000A88A0008A88A0008B08A0008A88A00081E
:1032C000F0B4860746D0541E002A3CD0CAB203464A
:1032D00002E014F1FF3436D303F8012B9D07F8D137
:1032E000032C29D9CDB245EA05250F2C45EA054521
:1032F00033D9A4F11006360903F1200707EB0617AE
:1033000003F1100242E9045542E902551032BA4273
:10331000F8D1721C14F00C0F03EB021204F00F062C
:1033200013D0331F23F003030433134442F8045B28
:103330009342FBD106F003042CB1C9B21C4403F83C
:10334000011B9C42FBD1F0BC704734461346002C55
:10335000F3D1F8E714460346C2E71A462646E0E7EB
:103360000FB410B5074B82B004AC54F8042B1868A6
:1033700023468168019400F007F802B0BDE81040D0
:1033800004B070479C0000202DE9F04FD5B01C46DA
:103390000991914605460B9003F0C4F803680D941B
:1033A0001846199303F0D4FF17901DB1AB6B002B97
:1033B00000F0C383099B596EB3F90C20CD0793B27B
:1033C00002D4980540F12187990408D4099842F461
:1033D0000053416E838121F400519BB241661A076C
:1033E00040F1BC80099A1269002A00F0B78003F00E
:1033F0001A020A2A00F0C08000234E460021002253
:103400001693CDE9293318931A93CDE91C331B93F6
:103410000A932BAB28939B463378CDE91412002BEB
:1034200000F0E481252B01F08B80354603E0252B4D
:1034300000F0B98025466B786C1C002BF7D1A71BD8
:1034400000F0D481DDE9293201333A44072BCBE97E
:103450000067CDE9293200F3AA800BF1080B0A9A24
:103460006B783A440A92002B00F0C08100234FF0A1
:10347000FF392B27202194F801800C938DF883309D
:10348000079304F1010A0AF1010AA8F120035A2B5B
:1034900000F25783DFE813F01603550355030402C7
:1034A000550355035503E10155035503D401CF01DD
:1034B000550367016E01550388012401240124018D
:1034C000240124012401240124012401550355036E
:1034D00055035503550355035503D00255031202F6
:1034E000B600D002D002D002550355035503550350
:1034F0000B025503550310015503550355032B03C8
:103500005503E20055035503520155035503550376
:1035100055035503550355035503D00255031202B5
:10352000BA00D002D002D0022003BA005B005503DB
:10353000B10155038F011401BC015B0055032B033E
:103540005F00E60055035503330155035F00079BF9
:1035500043F0200307939AF8008094E7099D0B98A5
:10356000294601F0D7FC002841F05183AB8903F0D4
:103570001A020A2A7FF440AF0999B1F90E20002AF5
:10358000FFF63AAF4A6ED60702D49D0541F14E814F
:1035900023464A4609990B9801F078FC0A900A984C
:1035A00055B0BDE8F08FA71B3FF460AF4AE728AAEB
:1035B00009990B9803F070FF80B90DF1AC0B4EE741
:1035C00028AA09990B9803F067FF002800F0E8810A
:1035D0000E9B1BB119460B9802F082FE099B5A6E96
:1035E0009B89D40706D5590601F11D830A9855B069
:1035F000BDE8F08F9805F6D4099CA06D02F09CFF01
:10360000A389F0E7079B43F010030793079B9806F5
:1036100040F1D7850D9C073424F007031946F1E8E3
:10362000022314461D460D91002A73F10003C0F2D7
:103630003F86B9F1FF3F00F0D284079B23F080075B
:1036400054EA050340F0CC84B9F1000F40F0CD847A
:1036500007974FF0000954AE4F46E8E2079B43F04E
:1036600010030793079FB80640F1BD850D9C0734F2
:1036700024F00703F3E802450D93012300228DF89F
:103680008320B9F1FF3F00F06A8227F080020792A1
:1036900054EA050240F06282B9F1000F40F09287CF
:1036A000002BD6D117F0010700F0E58530230DF28D
:1036B0004F168DF84F31BAE2079B43F01003079382
:1036C000079B9E0640F16C850D9C073424F0070390
:1036D000F3E802450D93079B23F480670023CDE7B1
:1036E0000022A8F130031AF8018B02EB820203EBEF
:1036F0004202A8F13003092BF5D90C92C5E6AE4B76
:103700001893079B9D061ED50D9C073424F00703D4
:10371000F3E802450D93079AD1070AD554EA050349
:1037200007D0302342F002028DF8858007928DF891
:103730008430079A022322F480679FE79F4B1893F7
:10374000079B9D06E0D407990D9ACC0602F104036D
:1037500000F19985079A500640F18F850D9A002552
:1037600014880D93D7E79AF80080079B43F0040371
:10377000079388E6524612F8018BB8F12A0F01F040
:103780005F83A8F13003092B92464FF000093FF602
:103790007CAE1AF8018B09EB890903EB4909A8F102
:1037A0003003092BF5D970E6079B9AF8008043F0A7
:1037B0008003079367E60D9A52F8043B0D92079A2F
:1037C000900600F15986079AD10600F10087079A02
:1037D000520600F14E87079A970540F1F886564643
:1037E0000A9A1A703378002B7FF41CAE2A9B002BA8
:1037F00040F05D8700232993F0E69AF80080079B4C
:10380000B8F16C0F00F0848643F0100307933AE69A
:1038100047F630030D9C079954F8042BADF884301B
:10382000654B0D94189341F00207144600250223BE
:103830004FF0780822E78DF883709AF8008022E62E
:103840000D9B9AF8008053F8042B002A0C920D93DC
:10385000BFF619AE53420C9387E70B9D284602F042
:1038600061FE436818461B9303F072FD1D900446E9
:10387000284602F057FE836820211C93002C3FF459
:103880006AAE1C9B9AF80080002B3FF4FCAD1B78BD
:10389000002B3FF4F8AD079B43F480630793F2E5F8
:1038A000079B9AF8008043F001030793EBE5079B21
:1038B0009AF8008043F008030793E4E5002301270A
:1038C0001A460D9C089754F8041B8DF883308DF828
:1038D000EC100D949146CDE912220E9211923BAE5E
:1038E000079B13F002030F9302D0089B0233089347
:1038F000079B2A9C13F08403109304D10C9B089916
:103900005D1A002D5CDC72B10120299A0444024446
:103910000DF18301072ACDE92924CBE9001000F33A
:10392000FC820BF1080B0F9B6BB10221299B0C440D
:10393000013321AA072BCDE92934CBE9002100F37B
:10394000F8820BF1080B109B802B00F0E381A9EBB0
:103950000705002D00F32182079BDB0500F1748130
:10396000299B3C440133072B2A94CBE90067299318
:1039700000F3C7820BF1080B079B5D0705D50C9B75
:10398000089A9D1A002D00F3E0820A9B0C9A089970
:103990008A42ACBF9B185B180A93002C7FF410AED0
:1039A000002329930E9B1BB10E990B9802F098FCF3
:1039B0000DF1AC0B564615E7FC870008E8870008B8
:1039C000102D299A29DD59462046B34610231E970B
:1039D0000B9C099E04E0103D102D01F1080118DD3B
:1039E0000132C64F1030072ACDE92920C1E9007302
:1039F000F1DD28AA3146204603F04EFD00287FF471
:103A0000E7ADDDE92920103D102D2BA94FF0100363
:103A1000E6DC5E4604468B461E9F0132B74B2C44C3
:103A2000072ACDE92924CBE9003500F3A5850BF160
:103A3000080B9DF8832066E70D9C073424F00703EC
:103A4000F3E8021214460D930B46CDE9143422F02C
:103A500000440D4608464FF0FF322146A84BFDF7C3
:103A6000A1FA002840F04484284621464FF0FF3256
:103A7000A34BFCF7A5FF002840F03A84DDE91401D0
:103A800000220023FCF792FF002840F002879DF8F7
:103A90008320032700219B4E9B4B08970E9189465C
:103AA000B8F1470FC8BF1E460798CDE9121120F0A4
:103AB000800007901191002A3FF412AF089B013358
:103AC00008930DE79DF883309AF80080002B7FF46F
:103AD000DAAC8DF88310D6E49AF80080079BB8F131
:103AE000680F00F0FF8443F040030793CBE4002508
:103AF0000D9C8DF8835054F8046B002E00F0118556
:103B0000B9F1FF3F00F068854A462946304603F088
:103B100039F80E90002801F01280A9460E9B9F1BD9
:103B200027EAE7730D940893CDF83890CDF84490C8
:103B3000CDE912999DF88320BDE70B9802F02CFB8C
:103B400038E4B8F1000F3FF451AE002301271A46C4
:103B500008978DF8EC808DF88330BBE6079F012B2A
:103B600000F03E82022B00F0298254A900E0314689
:103B7000E20842EA4572E80804F0070305461446E5
:103B8000303354EA050201F8013C01F1FF36EED171
:103B9000FA0749D5302B47D03023023906F8013CCB
:103BA00054AB07970E465F1A41E0002207F480638A
:103BB000CDE907B8CDF8389054AEB9469346DDF854
:103BC00070801F460BE00A22002320462946FDF79D
:103BD00027FA002D08BF0A2C1BD304460D460A22E3
:103BE000002320462946FDF71BFA303206F8012C47
:103BF0000BF1010B013E002FE5D098F800309B45FA
:103C0000E1D1BBF1FF0FDED0002D08BF0A2C80F000
:103C10004787CDF858B04F46CDF87080DDF81CB01E
:103C2000DDF83890DDF8208054AB07979F1B002308
:103C3000B9450E931193CDE912334B46B8BF3B46BD
:103C40009DF88320089336E7B8F1650F40F3E080D4
:103C5000DDE9140100220023FCF79EFE002800F09D
:103C6000D1810121299B294A0B440C44072B2A941A
:103C70002993CBE9002100F38E840BF1080B229BE2
:103C8000169A2A9C934280F2C982299B179A013383
:103C900019991444072BCBE90012CDE9293400F31C
:103CA0002A840BF1080B169B5D1E002D7FF764AE76
:103CB000102D299A41F3BE80154B10260B9FDDF87D
:103CC0002480994605E00BF1080B103D102D40F3C0
:103CD0006E8401321034072ACDE92924CBE90096FD
:103CE000F1DD28AA4146384603F0D6FB00287FF4D0
:103CF0006FACDDE929240DF1AC0BE6E71C88000868
:103D0000FFFFEF7FD8870008DC87000818880008CD
:103D10002C8800080C9B089A9D1A002D7FF717AE7F
:103D2000102D299AB54B28DD59460F972046B346EA
:103D30000B9C099E1F4604E0103D102D01F1080167
:103D400016DD102301321030072ACDE929200F603B
:103D50004B60F1DD28AA3146204603F09DFB002888
:103D60007FF436ACDDE92920103D102D2BA9E8DCCD
:103D70005E4604468B463B460F9F01322C44072A81
:103D8000CDE92924CBE9003500F37E83A9EB0705B3
:103D9000002D0BF1080B7FF7DFAD102D299A40F3B2
:103DA0005684964B59460F972046B3464FF010095C
:103DB0000B9C099E1F4604E0103D102D01F10801E7
:103DC00015DD01321030072ACDE92920C1E900793B
:103DD000F2DD28AA3146204603F05EFB00287FF47E
:103DE000F7ABDDE92920103D102D2BA9E9DC5E465B
:103DF00004468B463B460F9F01322C44072ACDE9EF
:103E00002924CBE9003500F3BE810BF1080BA3E5B3
:103E1000169A299B012A04F1010403F101050BF113
:103E2000080740F36F810123072DCBF80060CDE92F
:103E30002954CBF8043000F38683179B691C199A28
:103E40001C4407291091CDE92914C7E9002300F388
:103E500086830837109A169D02F101090023DDE9D7
:103E600014010022CDF83C9007F1080B05F1FF3852
:103E7000FCF792FD002840F058810F9B0136444426
:103E8000072B3E602A94C7F80480299300F31A8315
:103E900007F110035F469B46109A02320F921A9A5E
:103EA00024AB14447A600F9A2A94072A29923B6023
:103EB0007FF762AD28AA09990B9803F0EDFA002864
:103EC0007FF486AB0DF1AC0B2A9C55E5299A179926
:103ED000013219980C44072A2A94CBE9000129924F
:103EE00000F395840BF1080B002BC0F26886169B3B
:103EF00001321C44072ACDE92924CBE900637FF76E
:103F000039AD28AA09990B9803F0C6FA00287FF466
:103F10005FAB2A9C0DF1AC0B2EE528AA09990B98F2
:103F200003F0BAFA00287FF453AB0DF1AC0B2A9CD6
:103F3000F9E428AA09990B9803F0AEFA00287FF457
:103F400047AB0DF1AC0B2A9CFDE4102D299B21DD24
:103F500010260B9FDDF8248004E0103D102D0BF19E
:103F6000080B17DD0133264A1034072BCDE929341D
:103F7000CBE90026F1DD28AA4146384603F08CFA49
:103F800000287FF425ABDDE92934103D102D0DF11B
:103F9000AC0BE7DC01331A4A2C44072BCDE929345A
:103FA000CBE900257FF7F1AC28AA09990B9803F01B
:103FB00073FA00287FF40CAB2A9CE6E4189854AE00
:103FC000230943EA0573290904F00F020D461C4634
:103FD000835C06F8013D54EA0503F1D124E6079F0E
:103FE000002D08BF0A2CBFF4E0AD303407978DF8E0
:103FF0004F4101270DF24F1619E600BF2C8800082B
:104000001C880008229B002B40F30E81129B169AFD
:104010009342A8BF1346002B1D460BDD299B2C4461
:104020000133072B2A94CBE90065299300F31D8502
:104030000BF1080B129B002DA8BF5B1B002B1D462C
:1040400000F3D182129B33449946079B580500F137
:104050002684229B169A934203DB079AD10740F1EC
:10406000FF82299A1799013219980C44072A2A9439
:10407000CBE90001299200F329850BF1080B169A70
:10408000B518A5EB0905D31A9D42A8BF1D46002D02
:104090000BDD299A2C440132072A2A94CBE900959A
:1040A000299200F36F850BF1080B002DB4BF1D465C
:1040B0005D1B002D7FF760AC102D299A40F3BA8666
:1040C000894B10260B9FDDF82480994605E00BF103
:1040D000080B103D102D40F36A8201321034072A7C
:1040E000CDE92924CBE90096F1DD28AA41463846DE
:1040F00003F0D2F900287FF46BAADDE929240DF141
:10410000AC0BE6E7079AD2073FF58DAE0122072DEB
:10411000CBF80060CDE92954CBF8042000F37E846D
:1041200002330F930BF1100BB9E6B8F1000F7FF7D4
:10413000B6AEB8F1100F40F379866B4B4D461A4678
:1041400010262346DDF824B0DDF82C90144607E055
:104150000837A8F11008B8F1100F40F3A28101351B
:104160001033072DCDE92953C7E90046F0DD28AA11
:104170005946484603F090F900287FF429AADDE962
:1041800029532BAFE5E728AA09990B9803F084F986
:1041900000287FF41DAA0DF1AC0B2A9CFFF7DCBBB5
:1041A00007990D9ACD0602F1040300F19180079A58
:1041B000540640F187800D9A002514880D93FFF76F
:1041C0008ABA07990D9AC90602F1040366D4079AC0
:1041D00052065DD50D9A0D93B2F90040E5172246BF
:1041E0002B46FFF721BA079F0D9B3946C90603F1FD
:1041F000040272D4079F7E0640F11E820D9B0025AB
:104200001C880D920123FFF739BA099DA86D02F0B1
:1042100091F9B5F90C2093B2FFF7D6B8079BDD07EB
:104220003FF533ADFFF7A8BB0120299A2F4902447F
:104230000444072ACDE92924CBE9001000F3E183E7
:104240000BF1080B002B7FF441AE079B169A03F08D
:10425000010313433FF490AB299A179B013219993C
:104260001C44072A2A94CBE90013299200F3CF8239
:104270000BF1080B3BE654AED9E4079A12F4007F29
:104280000D9A40F00882146800250D93FFF743BA99
:10429000079A12F4007F0D9A40F0F08114680D9394
:1042A000E51722462B46002A73F10003BFF6C1A989
:1042B0002D2364428DF8833065EB4505079F01236C
:1042C000FFF7DFB9079A12F4007F0D9A40F0DE8104
:1042D000146800250D93FFF7FEB91C680D920025A8
:1042E0000123FFF7CBB900BF2C880008188800080D
:1042F000DDE9140102460B46FCF754FE002840F0AD
:104300003A85B8F1610F00F09E84B8F1410F00F0DA
:10431000DF8128F02003B9F1FF3F089300F0EC841F
:10432000472B04D1B9F1000F08BF4FF001091599CF
:10433000079A0D1E42F48073C0F28A830021149FF5
:104340001E910F9207930E91089B462B00F0CC8391
:10435000452B3A464FF002002B4600F0798426A9FF
:10436000CDE90009049123A822A9CDE902100B98F8
:1043700000F0DEFE089B0646472B40F07B850F9B36
:10438000DB0700F11984269FBB1B1693229B129317
:10439000089B472B00F04F82089B462B00F0DB83E5
:1043A0000899129B412903F1FF325FFA88F303BF9A
:1043B0000F33DBB201210021002A8DF89030B4BF09
:1043C000129B2B232292BCBFC3F101022D23092A89
:1043D0008DF8913040F3BB840DF19F042046B94D18
:1043E00001E008461A4685FB0231D317C3EBA1034F
:1043F00003EB8301A2EB41013031632A00F8011C79
:1044000000F1FF31EDDC3033821EDBB2944201F863
:10441000013C40F22B850DF1920201E011F8013BC5
:104420008C4202F8013BF9D10DF1A1030DF192028A
:104430001B1A134424AA9B1A1A93169B1A9A012B2F
:1044400003EB020740F3DC84179B1F4400220F9B01
:10445000CDE9122223F4806343F48073079327EAA3
:10446000E773119208931E9B002B40F00B82994634
:104470009DF88320FFF71FBB0A9A56461046D117B6
:10448000C3E90001FFF7AEB928AA09990B9803F018
:1044900003F800287FF49CA80DF1AC0B2A9CFFF7D1
:1044A00056BA22461C4613462A4601320F9207F19D
:1044B0000802C7E900380F9B4444072B2A9429932C
:1044C00040F3C88028AA09990B9802F0E5FF00285C
:1044D0007FF47EA8DDE9293401330F930DF1B40B8D
:1044E0002BAFDCE443F400739AF8018007930AF1E0
:1044F000010AFEF7C8BF28AA09990B9802F0CCFF61
:1045000000287FF465A80DF1AC0B2A9CFFF7CBBB0C
:1045100043F020039AF8018007930AF1010AFEF79D
:10452000B2BF4F46062F28BF0627B1461196CDE9E8
:1045300012660E96324608970D94634EFFF7BBBA8B
:104540003446FEF793BF28AA09990B9802F0A4FFFE
:1045500000287FF43DA8DDE929542BAF6DE428AA9B
:1045600009990B9802F098FF00287FF431A8DDE943
:1045700029342BAF10936DE428AA09990B9802F007
:104580008BFF00287FF424A80DF1AC0B9DF883204D
:104590002A9CFFF7B8B928AA09990B9802F07CFF6A
:1045A00000287FF415A80DF1AC0BFFF768BB4B4654
:1045B00001322C44072ACDE92924CBE900357FF7C5
:1045C000D9A99EE4012B079F7FF4CCAA0DE50A9A96
:1045D00056461A60FFF706B9304602F0B9FEA94602
:1045E0000746FFF79DBA102B299A40F33484374BC6
:1045F00010271946DDF82C802346DDF824900C4660
:1046000005E00BF1080B103D102D40F3EA8101325B
:104610001033072ACDE92923CBE90047F1DD28AA89
:104620004946404602F038FF00287EF4D1AFDDE96C
:1046300029230DF1AC0BE6E7079F0D9B17F4007FD4
:104640002ED01C78002501230D92FFF717B81F4BC1
:10465000FFF7D2BB01330F9302F1080B17461EE49C
:10466000169AB518A5EB0905D31A9D42A8BF1D4699
:104670001BE50A9A56461A80FFF7B4B892F9004033
:104680000D93E51722462B46FEF7CEBF1478002582
:104690000D93FFF720B8147800250D93FFF73BB872
:1046A0001C68079F0D9200250123FEF7E7BF0B98BA
:1046B00028AA099902F0F0FE00283FF49BA8FEF713
:1046C0008DBF00BF67666666108800082C880008EA
:1046D00030238DF8843058238DF88530079BB9F14D
:1046E000630F43F002030F9300F3A28200233BAE5B
:1046F0000E93079B43F48173079328F020030893DC
:10470000159B1D1EC0F2A9810023149F1E93B8F1B2
:10471000610F00F04383B8F1410F7FF415AE2946D5
:1047200022AA384602F084FD00224FF07F53FBF7A7
:10473000CBFE0022002304460D46FCF72DF908B1FC
:1047400001232293BE4B109309F1FF33CDE911AB46
:10475000CDF858901F96B146CDF84C80DDF840A0BA
:104760001E4605E000220023FCF716F9F8B9B94609
:104770000022B44B20462946FBF7A6FE0D46044610
:10478000FCF726FC8046FBF735FE4F460B460246FB
:1047900029462046FBF7E0FC1AF80830B34607F834
:1047A000013B731C04460D4606F1FF36DAD10022A8
:1047B000A54B20462946DDF844A01F9ECDF844B005
:1047C000DDF848B0CDF84880DDF84C80CDF84C904D
:1047D000DDF85890FCF708F9002840F0498220469F
:1047E00029460022984BFCF7D7F818B1129BD9073D
:1047F00000F13E82119B002BFFF6C6AD3022119BCB
:1048000001333B4407F8012BBB42FBD1BCE528AA8E
:1048100009990B9802F040FE00287EF4D9AEDDE93C
:1048200029240DF1AC0B229BFFF75EBB886D01F0D4
:1048300083FEFEF7ADBE129BDA1C01DB4B4505DDA6
:10484000A8F1020828F020030893A9E5129B169905
:104850008B42C0F2A7810F9AD50740F18782179A41
:104860009F180F9B5C0540F18382129B002B00F385
:1048700047824FF0670827EAE773089300231193F4
:104880001393F0E52D224FF000098DF88320FFF7F8
:1048900015B92D231A468DF88330FFF7FAB8169B09
:1048A0005A46F3180F93139BCDF840A01296674F0A
:1048B0004E46DDF870802146DDF82CA0DDF824B0EE
:1048C000DDF87490002B31D0119B002B6DD1139B20
:1048D00008F1FF38013B1393299B1B98013349448E
:1048E000072B2A91C2E90009299362DC08320F984C
:1048F00098F80030851B9D42A8BF1D46002D0BDD9A
:10490000299B29440133072B2A91C2E90065299389
:104910005ADC98F800300832002DB4BF1D465D1BEC
:10492000002D15DC1E44139B002BCDD1119B002BB9
:104930003BD1B146169B129E9346F3189945DDF87C
:1049400040A0CDF870800C4628BF9946FFF781BB88
:10495000102D29981CDD102404E0103D102D02F1CB
:10496000080215DD013010310728CDE92901C2E91F
:104970000074F2DD28AA5946504602F08DFD002849
:104980007EF426AEDDE92901103D102D2BAAE9DCCD
:10499000013029440728CDE92901C2E9007571DCFD
:1049A00098F8003008321E44BDE7119B013B11937B
:1049B00092E728AA5946504602F06EFD00287EF480
:1049C00007AE2BAA2A9992E728AA5946504602F028
:1049D00063FD00287EF4FCAD2BAA98F800302A99DC
:1049E0009AE721461C460B4601322C44072ACDE9A2
:1049F0002924CBE9003500F372810BF1080BFFF796
:104A000021BB28AA09990B9802F046FD00287EF4E4
:104A1000DFAD0DF1AC0B229B2A9C13E428AA099967
:104A20000B9802F039FD00287EF4D2ADDDE929347F
:104A300001332BAF0F930DF1B40BFFF730BA00BF6A
:104A4000E8870008000030400000E03F2C880008A4
:104A5000079A07930F9200220E92DDE914341F4645
:104A60002D2304F100451E9351E628AA09990B98BD
:104A700002F012FD00287EF4ABAD0DF1AC0B2A9CC8
:104A8000FFF7D8BA28AA5946504602F005FD00287B
:104A90007EF49EAD98F800302BAA2A991E4442E776
:104AA0001D9B1B99F61A1A46304602F07FFC98F8B7
:104AB00001300BB108F101080A22002320462946E3
:104AC000FCF7AEFA4FF0000BFFF787B828AA099958
:104AD0000B9802F0E1FC00287EF47AAD0DF1AC0BEE
:104AE000229B2A9CFFF7CBBA032026A9CDE9000917
:104AF000049123A822A92B46CDE902103A460B982F
:104B000000F016FB03780646302B00F06C81229BE8
:104B10004B44F4183846294600220023FBF73CFF9B
:104B200008B1274630E4269FA742BFF42DAC3022BF
:104B30007B1C26933A70269FBC42F9D824E44F464A
:104B4000CDF820900D9481461190CDE912009DF88A
:104B50008320FEF7B0BF0F9B129A03F00103002AD7
:104B600043EA090340F35281002B40F02D814FF0BE
:104B70006608129F0F9B5A0500F1C48027EAE7736D
:104B800008937BE628AA09990B9802F085FC002877
:104B90007EF41EAD229B169A0DF1AC0B2A9CD31A03
:104BA000FFF783BADDE916329F18129B002B40F302
:104BB00011814FF06708DDE706EB0904AAE75D42C3
:104BC000103380F24A81AD4B10271946DDF82C8056
:104BD0002346DDF824900C4604E00BF1080B103D51
:104BE000102D62DD01321033072ACDE92923CBE9EC
:104BF0000047F2DD28AA4946404602F04DFC002855
:104C00007EF4E6ACDDE929230DF1AC0BE7E7099B67
:104C10005B6EDB0707D4099B9B899F0503D4099B27
:104C2000986D01F089FC4FF0FF330A93FEF7DEBC6C
:104C300009F101010B9801F0F9FC0646002800F08B
:104C40000E810E9055E530238DF88430782343E5AE
:104C500026A909F101040090049123A822A9019436
:104C6000CDE902100B9800F063FA0646344451E790
:104C7000139B2693109B17F8012CD97B3B468A4245
:104C800009D1302003F8010C269B5A1E269213F8F6
:104C9000012C9142F6D0392A0BBF109A0132927A38
:104CA000D2B203F8012CFFF76FBB21461C460B461E
:104CB00001322C44072ACDE92924CBE900357FF7BE
:104CC000D7AA28AA09990B9802F0E6FB00287EF4DF
:104CD0007FACDDE929240DF1AC0BFFF708B928AA58
:104CE00009990B9802F0D8FB00287EF471AC0DF105
:104CF000AC0B2A9CFFF7A6B94FF00609FFF717BBCC
:104D00004FF0670800231C9811931393129A0378AD
:104D1000FF2B0BD0934209DA4178D21A99B1139B39
:104D20000130013313930B46FF2BF3D11292139BE7
:104D3000119A1C9013441D9A02FB037727EAE7732C
:104D40000893FFF790BB119901311191E0E7002919
:104D500073D130238DF892300DF19303303203F884
:104D6000012B24AA9B1A1A93FFF767BB129F78E5C1
:104D70004FF0670802E7159B0327002BB8BF2D23D0
:104D80004FF00001BABF1A468DF883309DF883209A
:104D900008970E913A4E3B4BFEF781BE294622AA58
:104DA000384602F045FA00224FF07F53FBF78CFBA8
:104DB0000022002304460D46FBF7EEFD08B1012357
:104DC0002293314B1093BFE4179B4FF06608D7181E
:104DD0004F44CFE6C3F101031F4427EAE77308936A
:104DE0004FF067084AE53846294600220023FBF7C2
:104DF000D3FD00287FF48BAEC9F10103229387E62F
:104E00000F9BDB077FF522ABFFF71EBB2BB90123FE
:104E10004FF0660808931F4630E5179B4FF0660871
:104E20005F1C4F4427EAE773089327E55A46134B64
:104E3000FFF73FBB114BFFF7BBBB0DF192038DE7B3
:104E40000D9B9AF8018053F8040B924640EAE079F2
:104E50000D93FEF718BB094BC6E5084B28E7099AE6
:104E6000938943F040039381FEF7B8BB02231A9362
:104E7000FFF7E3BA4C4634444CE600BF2C880008E8
:104E8000E0870008E4870008FC8700082DE9F0416E
:104E90000C464FF0000C4FF48065064617469846C6
:104EA000626EE3898989ADF58D6D21F00201199259
:104EB000ADF80E30E269636AADF80C1016A81AA9B5
:104EC000CDF818C0079209930091049102950595B9
:104ED00001F02CFB43463A4669463046FEF754FA49
:104EE000051E07DB3046694601F0FAF8002818BFB6
:104EF0004FF0FF35BDF80C305B0603D5A38943F0B6
:104F00004003A381169801F013FB28460DF58D6D23
:104F1000BDE8F08138B5314B054618680C4608B13C
:104F2000836B0BB3B4F90C2093B2180723D5206917
:104F300060B313F0010207D000226369A2605B42F4
:104F4000A36138B1002038BD990758BF6269A260DB
:104F50000028F7D1B4F90C301A06F4D543F0400319
:104F6000A3814FF0FF3038BD01F016F9B4F90C20E1
:104F700093B21807DBD4D90628D5580712D4206974
:104F800042F00803A3819BB20028D2D103F420721F
:104F9000B2F5007FCDD02846214601F0FDFAA38965
:104FA0002069C6E7216B51B104F14003994204D056
:104FB000284601F095F9B4F90C200023236300235F
:104FC000206922F02402C4E90003D9E7092342F052
:104FD00040022B604FF0FF30A28138BD9C000020C2
:104FE000024B13B1024800F005B870470000000002
:104FF0000D620008002301461A46184602F06CBAFA
:105000002DE9F04F03690E6983B0B342C0F2898085
:10501000013E01F1140500F1140955F8263059F844
:10502000262001338246B000009005EB00089A422A
:105030004844B2FBF3F701903CD30022AE4614463D
:10504000CC465EF8043BDCF800001FFA83FB07FB4C
:105050000B221B0C4FEA124B07FB03BB93B2E31A64
:1050600082B21FFA8BF41344C4EB104404EB2344C4
:105070009BB243EA0443F0454CF8043B4FEA244416
:105080004FEA1B42DDD2009B59F8033093B9019AD5
:10509000131F99450CD252F8043C4BB9A2F10803F6
:1050A00002E01A68043B1AB9994506F1FF36F8D3B5
:1050B000CAF81060504601F0C9FF00282DDB4846B1
:1050C0000023013755F8041B04688AB29A1A0B0CA6
:1050D000A1B20A44C3EB144303EB224392B242EA67
:1050E0000342A84540F8042B4FEA2343EAD259F87B
:1050F000262009EB860382B91A1F91450BD253F87B
:10510000042C42B9083B02E01A68043B1AB99945DD
:1051100006F1FF36F8D3CAF81060384603B0BDE890
:10512000F08F002003B0BDE8F08F00BF000000004A
:105130002DE9F04F1F461646036C97B00446CDE9A3
:1051400002674BB10122456C1946AA40C3E90152DE
:1051500001F090FD002323643E1EB4BF0123002311
:10516000239AB8BF26F000461360754BB8BF03966C
:10517000B34300F0AF80DDE9022310461946002258
:105180000023CDE90801FBF707FC074678B10123AE
:10519000229A1360249B002B00F03983694B249AD8
:1051A0001360013B0493049817B0BDE8F08F14AA74
:1051B00015ABCDE90032DDE90889204642464B4671
:1051C00001F0E0FF350D834640F09A80DDE914855B
:1051D000454405F23243202B40F3E983C3F14003F9
:1051E0009E40029B05F2124023FA00F03043FBF789
:1051F000F1F802460120013D0D90A1F1F87310462F
:1052000019460022504BFAF7A7FF47A3D3E9002322
:10521000FBF75AF946A3D3E90023FAF79FFF0646A6
:1052200028460F46FBF7E6F843A3D3E90023FBF734
:105230004BF902460B4630463946FAF78FFF0646D1
:105240000F46FBF7C5FE0022824600233046394652
:10525000FBF7ACFB002840F0CD82A8EB05056B1EE8
:10526000BAF1160F059300F2BA82DDE90801374B57
:1052700003EBCA03D3E90023FBF798FB00286BD0AC
:1052800000230C93059B0AF1FF3A002BC0F2AD827C
:105290004FF00009BAF1000F64DACAF100030B9372
:1052A000209BA9EB0A09092BCDF818A04FF0000AA2
:1052B00061D8052B40F379830025043B2093209B84
:1052C000023B032B00F25286DFE813F0A504A20490
:1052D0007A04950442F20F73229AC6F31306136000
:1052E000029B334319D1249B002B00F03686184BC8
:1052F00004930833249A0498136017B0BDE8F08F24
:10530000C9F3130141F07F534246A5F2FF350D97D3
:1053100043F44013DDF8508071E7249B002B40F0EC
:1053200033840C4B04933EE761436F63A787D23FFE
:10533000B3C8608B288AC63FFB799F501344D33F84
:105340000000F07F198800080000F83F7888000806
:10535000408800083C880008059B0C90002BC0F298
:1053600044828146059B5344CDE9053A00230B93C3
:10537000209B092B9DD900234FF0FF360125209358
:1053800007960A952193002110966164204601F04A
:105390004BFC0E2E0490206400F23481002D00F0AE
:1053A00031810699002940F37F84AA4B01F00F0256
:1053B00003EBC2030D11D3E90023CDE90E23EA0666
:1053C00040F14884DDE90801A34B0327D3E9082312
:1053D000FBF7A4F9CDE9020105F00F057DB1DDE988
:1053E0000E019D4EEB0704D5D6E90023FBF76CF8C0
:1053F00001376D1006F10806F4D1CDE90E01DDE9A3
:105400000201DDE90E23FBF789F9CDE902010C9BCE
:1054100043B1DDE902010022904BFBF7C7FA0028F7
:1054200040F02A853846FAF7E5FFDDE90223FBF76D
:105430004BF88B4B0022FAF791FEA1F15073CDE9A6
:105440000E010F93079B002B00F0BC80069B12936C
:10545000079B1193DDE9026739463046FBF7B8FD3B
:105460000546FAF7C7FF02460B4630463946FAF7BB
:1054700073FE119A774B064603EBC2030F46DDE934
:105480000E120A98CDE9021253E90223049930352D
:105490005FFA85F84D1C002800F0808400207149D7
:1054A000FBF73CF9DDE90223FAF756FE049B32468E
:1054B00083F800803B46CDE90201FBF795FA00280E
:1054C00040F0BB8432463B4600206449FAF744FE74
:1054D00002460B46DDE90201FBF786FA002840F0A0
:1054E0003885119B012B00F08980049ACDF84490F7
:1054F0001344CDF84CA0CDF838B09946DDE902ABA5
:10550000A0460FE032463B4600205449FAF724FEFD
:1055100052465B46FBF74AFA002840F0F284A94560
:1055200000F0F8845046594600224F4BFAF7CCFF62
:1055300000224D4B82468B4630463946FAF7C4FF6F
:105540000F460646FBF744FD0446FAF753FF0246B2
:105550000B4630463946FAF7FFFD3034E4B205F821
:10556000014B52465B4606460F46FBF71FFA0028E2
:10557000C8D04446129BDDF838B001330693594633
:10558000204601F077FB00232B70229B1A46069BD6
:105590001360249B002B3FF406AE04981D6017B0E7
:1055A000BDE8F08F3846FAF725FFDDE90223FAF768
:1055B0008BFF2B4B0022FAF7D1FDA1F15073CDE9FF
:1055C0000E010F930022DDE90201284BFAF7C4FD1A
:1055D000DDE90E783A46434605460E46FBF704FAE7
:1055E0000746002840F0CB83DDE90E01024601F1B9
:1055F000004328463146FBF7D9F930BBDDE90823E3
:10560000CDE90223159B002BC0F2C780069A0E2A13
:1056100000F3C3800F4B03EBC203D3E9009A219B35
:10562000002B25DA079F002F22DC40F05A8400224D
:105630000E4B48465146FAF747FFDDE90223FBF7D8
:10564000C9F9002800F09C83079F3E46219B049DDA
:10565000DB436DE278880008508800080000F03FC6
:1056600000001C400000E03F000024400000144007
:10567000DDE902674A46534630463946FBF74EF8A5
:10568000FBF7A6FC8046FAF7B5FE4A465346FAF702
:105690001BFF0246304646460B463946FAF75CFD8C
:1056A000049D3036069F05F8016B079E0137012ED9
:1056B00002460B46069744D00022CA4BFAF704FF75
:1056C0000022002306460F46FBF766F900287FF408
:1056D00056AFCDF808B04FF00108DDF81CB00594C6
:1056E0000CE00022BF4BFAF7EFFE00220023064633
:1056F0000F46FBF751F9002840F039834A465346DC
:1057000030463946FBF70AF8FBF762FC0446FAF725
:1057100071FE4A465346FAF7D7FE02460B4630461C
:105720003946FAF719FD08F1010804F13006C345BE
:1057300002460B4605F8016BD3D1A046DDF808B050
:10574000059C10461946FAF709FD4A465346064697
:105750000F46FBF749F960B94A4653463046394689
:10576000FBF71AF900283FF40AAF5FEAC8717FF52A
:1057700006AF15F8018C6B1E049A04E09A4200F003
:10578000A18313F8018DB8F1390F03F10105F5D0AC
:1057900008F10102D2B21A70F1E60A9A002A3CD04E
:1057A000209A012A40F36C82079B5F1E0B9BBB4231
:1057B00080F24E820B9B0B97FB1A00279A44079BA3
:1057C000002BC0F2D882059A4D4611461944059126
:1057D00099440121204601F0EDFA064620E001231C
:1057E0000C93059B002BBFF653AD0023C5F10109B7
:1057F00005934FE55046FAF7FDFD32463B46FBF771
:10580000CBF800287FF429AD0AF1FF3A25E5764B65
:105810000493049817B0BDE8F08F4D460B9F0A9E85
:10582000002D0BDD059A002A08DDAA421346A8BF09
:105830002B46A9EB0309ED1AD31A05930B9BD3B1A1
:105840000A9B002B00F09981002F10DD31463A466B
:10585000204601F051FB5A4601460646204601F01B
:10586000B3FA0346594620469B4601F003FA0B9BC8
:10587000DA1B40F083810121204601F09BFABAF146
:10588000000F074600F39980209B012B40F3818194
:105890004FF000080120BAF1000F40F09A80059AFD
:1058A000104410F01F0079D0C0F12003042B40F306
:1058B0005883C0F11C000244814405440592B9F1AB
:1058C000000F05DD59464A46204601F065FB834638
:1058D000059B002B05DD39461A46204601F05CFB8E
:1058E00007460C9B002B40F02D81079B002B40F3BB
:1058F0000481069B013306930A9B002B40F08280B3
:10590000049D4FF00108DDF81C9008E05946002383
:105910000A22204601F0B8F9834608F10108394609
:105920005846FFF76DFBC84500F1300005F8010B44
:10593000ECDB03464FF0000A594601222046029351
:1059400001F02AFB3946834601F080FB002815F858
:10595000012C40F387816B1E049904E0994200F00A
:105960009C8113F8012D392A03F10105F6D001328B
:105970001A703946204601F07DF9002E3FF4FFAD44
:10598000BAF1000F05D0B24503D05146204601F0D0
:1059900071F93146204601F06DF9F0E51C20059BB8
:1059A000814403440544059389E7012587E4C3F155
:1059B0002006029B03FA06F019E4014652462046EF
:1059C00001F09AFA209B0746012B40F397814FF094
:1059D00000083B6907EB8303186901F09BF9C0F1EC
:1059E00020005CE7000024401888000831460023AE
:1059F0000A22204601F048F9109B0646002B40F38E
:105A0000A3820793002D00F31C81B8F1000F40F032
:105A10009A81B1460499029B884603F001024B1E0D
:105A200020990B920A430A92079A1A44089239461F
:105A30005846FFF7E5FA31460290584601F006FB5A
:105A40004A4682463946204601F01CFB029BC2684A
:105A500005463033002A42D101465846079301F0EB
:105A6000F5FA29460590204601F004F9059A079BAE
:105A70001AB90A99002900F05682BAF1000F08F10C
:105A80000105C0F24681209941EA0A0A0B9951EAC0
:105A90000A0100F03E81002A00F37481089A88F818
:105AA0000030424500F07781594600230A22204603
:105AB00001F0EAF84E45834631464FF000034FF0BF
:105AC0000A02204613D001F0DFF8494606460023BB
:105AD0000A22204601F0D8F8A8468146A7E70146E9
